:100000000C945D050C94971C0C94A4050C94A40509
:100010000C94A4050C94A4050C94A4050C94A405BC
:100020000C94A4050C94A4050C94E7300C94B931FD
:100030000C94062B0C94A4050C94A4050C94A40514
:100040000C94A4050C94A4050C94A4050C94A4058C
:100050000C94A4050C945F2B0C94A4050C94A4059B
:100060000C94A4050C94A4050C94A4050C94A4056C
:100070000C94A4050C94A4050C94A4050C94A4055C
:100080000C94A4050C94A4050C94A4050C94A4054C
:100090000C94A4050C94A4050C94A4050C94A4053C
:1000A0000C94A4050C94A4050C94A4059D15A0150E
:1000B000A515AC15B115B615BB15C015C515CA15D6
:1000C000CF15D415D615D915DC15DF15E215E515B4
:1000D000E715EC15F320F320252125217221A62216
:1000E000A622A62290212522362236229622A62258
:1000F000A6229F2242234223542354234B235423DA
:100100005423542342234223502354235423502363
:1001100026324D3245334D3245339932BC32453368
:100120001333223329001E001F002000210022006B
:100130002B0014001A00080015001700E00004004E
:100140001600070009000A00E1001D001B00060060
:100150001900050000000000E200E30028424C0006
:100160006C00270026002500240023002F00130028
:1001700012000C0018001C00347133000F000E0038
:100180000D000B00E50038003700360010001100AC
:1001900000000000E6002A002C41000035020000AB
:1001A0000000000000002202010000001F022F02D8
:1001B000260221020100000035002F0067002D00FB
:1001C0000000000031022D02360254000000000041
:1001D00001000100035101000000000000000000C8
:1001E00000002302000000002402300227021E0249
:1001F000340233022002300057002502000038028A
:10020000630085003702310000000000010001009A
:100210000100000045003A003B003C003D003E006C
:100220000100000000000000000000000100A60026
:1002300071006F006E006A000100730072007000B0
:100240006D006B000000000001000100010003517F
:10025000440043004200410040003F000100000014
:10026000A900A800AA0068000100C35C4F0052006A
:10027000510050000100C45CAB00AE00AC0069004E
:100280000000000001000100010000000100010069
:100290000100010001000100010001000100010056
:1002A0000100010001000100010001000100010046
:1002B0000100010001000100010001000000000038
:1002C0000100010001000100010001000100010026
:1002D0000100010001000100010001000100010016
:1002E0000100010001000100010001000100010006
:1002F00001000100010001000000000001000100F8
:100300000100010044454255473A20646973616227
:100310006C65642E0A0044454255473A20656E617B
:10032000626C65642E0A000A0025303862003A20AB
:100330000025303258000A722F63203031323334B6
:100340003536370A007267626C6967687420616EBF
:10035000696D6174696F6E207469636B207265707A
:100360006F727420746F20736C6176650A00726717
:10037000626C696768742074696D65722064697362
:1003800061626C652E0A007267626C69676874202E
:1003900074696D657220656E61626C65642E0A0019
:1003A0007267626C6967687420736574206873761D
:1003B000205B4E4F454550524F4D5D3A2025752CE0
:1003C00025752C25750A007267626C696768742050
:1003D00073657420687376205B454550524F4D5DC0
:1003E0003A2025752C25752C25750A007267626CDC
:1003F00069676874207261696E626F7720736574D3
:10040000206873763A2025642C25642C25642C25DD
:10041000750A007267626C69676874206469736149
:10042000626C65205B4E4F454550524F4D5D3A2002
:100430007267626C696768745F636F6E6669672E66
:10044000656E61626C65203D2025750A00726762E9
:100450006C696768742064697361626C65205B45D0
:100460004550524F4D5D3A207267626C69676874FF
:100470005F636F6E6669672E656E61626C65203DB5
:100480002025750A007267626C6967687420656E62
:1004900061626C65205B454550524F4D5D3A20725C
:1004A00067626C696768745F636F6E6669672E6503
:1004B0006E61626C65203D2025750A007267626C72
:1004C0006967687420746F67676C65205B45455089
:1004D000524F4D5D3A207267626C696768745F6362
:1004E0006F6E6669672E656E61626C65203D2025C2
:1004F000750A007267626C69676874206D6F646565
:10050000205B4E4F454550524F4D5D3A2025750AB0
:10051000007267626C69676874206D6F6465205B48
:10052000454550524F4D5D3A2025750A007267626D
:100530006C696768745F696E6974207267626C6960
:100540006768745F636F6E6669672E6D6F646520A0
:100550003D20302E20577269746520646566617590
:100560006C742076616C75657320746F20454550FE
:10057000524F4D2E0A007267626C696768745F693A
:100580006E6974206565636F6E66696720697320A4
:100590006E6F7420656E61626C65642E0A0072670E
:1005A000626C696768745F696E69742073746172E4
:1005B00074210A007267626C696768745F696E69AA
:1005C000742063616C6C65642E0A007267626C69EA
:1005D0006768745F636F6E6669672E7370656564C4
:1005E000203D2025640A007267626C696768745F49
:1005F000636F6E6669672E76616C203D2025640A04
:10060000007267626C696768745F636F6E666967C2
:100610002E736174203D2025640A007267626C6944
:100620006768745F636F6E6669672E687565203DE5
:100630002025640A007267686C696768745F636F7D
:100640006E6669672E6D6F6465203D2025640A0023
:100650007267626C696768745F636F6E6669672E44
:10066000656E61626C65203D2025640A00726762D8
:100670006C696768745F636F6E6669672045455093
:10068000524F4D3A0A001E0F0500047F3F1F64328F
:1006900014643214783C1E1E140A052223252628D1
:1006A000292A2C2D2F3032333536383A3B3D3E4007
:1006B00042434547494A4C4E5051535557595A5C4D
:1006C0005E6062646668696B6D6F71737577797B64
:1006D0007D7F81838587898A8C8E90929496989A63
:1006E0009C9E9FA1A3A5A7A8AAACAEAFB1B3B4B678
:1006F000B8B9BBBCBEBFC1C2C3C5C6C7C9CACBCCD3
:10070000CDCED0D1D2D2D3D4D5D6D7D7D8D9D9DAA5
:10071000DADBDBDBDCDCDCDCDCDDDDDDDDDCDCDC1A
:10072000DCDCDBDBDBDADAD9D9D8D7D7D6D5D4D342
:10073000D2D2D1D0CECDCCCBCAC9C7C6C5C3C2C117
:10074000BFBEBCBBB9B8B6B4B3B1AFAEACAAA8A774
:10075000A5A3A19F9E9C9A98969492908E8C8A892C
:10076000878583817F7D7B79777573716F6D6B6909
:1007700068666462605E5C5A5957555351504E4CDE
:100780004A4947454342403E3D3B3A38363533328D
:10079000302F2D2C2A292826252322FFAA7F5540D9
:1007A0006261636B6C6967687420737465703A206A
:1007B00025750A006261636B6C69676874206469FF
:1007C0007361626C650A006261636B6C696768746F
:1007D00020656E61626C650A006261636B6C6967BB
:1007E000687420746F67676C653A2025750A00622B
:1007F00061636B6C696768742064656372656173BB
:10080000653A2025750A006261636B6C69676874DC
:1008100020696E6372656173653A2025750A000070
:1008200001010101010101010102020202020202B1
:100830000202030303030303030304040404040484
:10084000040505050505060606060607070707074A
:1008500008080808090909090A0A0A0B0B0B0C0CFD
:100860000C0D0D0D0E0E0E0F0F0F10101111111299
:100870001213131414151516161717181819191A18
:100880001A1B1B1C1D1D1E1E1F202021222223247B
:1008900024252626272829292A2B2C2D2D2E2F30BA
:1008A000313232333435363738393A3B3C3D3E3FCE
:1008B000404142434445464748494A4C4D4E4F50BB
:1008C000515354555658595A5B5D5E5F6162646579
:1008D0006668696B6C6D6F7072737577787A7B7D03
:1008E0007E8082838587888A8C8E8F919395969857
:1008F0009A9C9EA0A2A3A5A7A9ABADAFB1B3B5B773
:10090000BABCBEC0C2C4C6C9CBCDCFD1D4D6D8DB49
:10091000DDDFE2E4E7E9EBEEF0F3F5F8FAFDFF0ADC
:10092000002530325820006B6579626F6172645F18
:100930007265706F72743A20000A002530325800D8
:100940006B6579626F6172645F7365745F6C656417
:100950003A20005B735D004B6579626F61726420C1
:1009600073746172742E0A005B575D005B535D0007
:100970005B525D005B445D005B435D0026034B0002
:1009800065006500620069006F0020004900720088
:100990006900730020005200650076002E002000E0
:1009A000340000000E034B00650065006200690022
:1009B0006F0000000403090409025B00030100A0AA
:1009C000FA090400000103010100092111010001DD
:1009D0002240000705810308000A09040100010301
:1009E00000000009211101000122320007058203E5
:1009F00020000A090402000203000000092111017D
:100A000000012222000705830320000107050303DC
:100A1000200001120110010000000810CB56420016
:100A200004010200010631FF0974A10109751500D6
:100A300026FF009520750881020976150026FF0023
:100A4000952075089102C005010980A1018503194F
:100A5000012AB700150126B700950175108100C065
:100A6000050C0901A101850419012AA0021501261E
:100A7000A002950175108100C005010906A10105BC
:100A80000719E029E71500250195087501810295F0
:100A900001750881010507190029FF150026FF00CF
:100AA0009506750881000508190129059505750148
:100AB0009102950175039101C00011241FBECFEF73
:100AC000DAE0DEBFCDBF04B603FE27C08091680325
:100AD00090916903A0916A03B0916B038730904BAA
:100AE000A740B04BD1F410926803109269031092A2
:100AF0006A0310926B0314BE84B7877F84BF0FB65E
:100B0000F894A895809160008861809360001092AD
:100B100060000FBEE0E0F8E3099511E0A0E0B1E06D
:100B2000EAEEF9E602C005900D92AA3FB107D9F7A7
:100B300023E0AAEFB1E001C01D92A836B207E1F7A9
:100B40000E941A2E0C94F3340C940000FF93EF9340
:100B5000E091FA01F091FB01309709F00995EF91CE
:100B6000FF910895FC018591803011F0EFDFFBCFFC
:100B70000895FF27E0E230E247FF0CC0419597FF60
:100B800009C0EDE26095709580959095611D711D8D
:100B9000811D911D27FF02C0219530E350E2AA2755
:100BA000660F771F881F991FAA1FA41710F0A41B98
:100BB00063955A95A9F7AA3008F0A95FA05DAF9395
:100BC000F395611571058105910541F7ED3211F439
:100BD000EF93F395F21718F43F93F395FBCF8F91B2
:100BE000B5DFFA95E1F70895E991F99185918030A3
:100BF00021F0853219F0AADFF9CF089520E0E894BA
:100C000055915532C1F3503311F4689455915A33CC
:100C100048F4505390F3220F022E220F220F200D82
:100C2000250FF4CF0EF4219589919991533619F33C
:100C3000533729F1533559F1BC0188279927E89496
:100C40005C3621F48991999168945591543639F420
:100C500046EF7EF077FF0DC08FEF9FEF0AC055374C
:100C60004AE039F0583540E121F0523642E009F0CF
:100C70000895FF93EF937DDFEF91FF91B7CFFF933F
:100C8000EF93FC0181918030B9F360DFFBCFFF93DC
:100C9000EF9368DFF1CFDF93CF93CDB7DEB7259623
:100CA000A3DFCF91DF9108950E94901683E00E9408
:100CB00040170E945A134FEF6FEF80E00E94760FAB
:100CC0008BE00E94571360E070E0CB010E94E9299D
:100CD0000C94F52981E0089581E008950C946C0648
:100CE00008950C9470061F93CF93DF9300D000D02B
:100CF0001F92CDB7DEB749835A836B8330918C0244
:100D000089819A81311114C0662359F0222349F058
:100D10000E947D28182F682F89819A810E9424289B
:100D200003C00E945028182F69817A81812F04C046
:100D30000E947D2869817A810F900F900F900F900B
:100D40000F90DF91CF911F910C946207FC01262F29
:100D5000408151816281738184810C947306CF93A9
:100D6000DF93EC0160E00E94A606BE01DF91CF9107
:100D70000C9471060E94AF29811102C00E94582A6A
:100D80000E94E5170C94C1090C94BD0908950E94B6
:100D900030230E94C6062FEF84E39CE02150804060
:100DA0009040E1F700C000000C94CF2B0F931F93ED
:100DB000CF93DF93EC0161E00E94A6068C01BE0197
:100DC0000E946E06882309F450C0BE01C8010E942B
:100DD0004617882309F449C0BE01C8010E94AD1915
:100DE000882309F442C0BE01C8010E94FF1988236C
:100DF000E1F1BE01C8010E942A1B8823B1F1BE01A6
:100E0000C8010E948715882381F18A81882331F1E6
:100E100001308CE5180751F00F3D8CE51807D9F02B
:100E200001151C45D9F40E94C7061FC0809102031A
:100E3000C82FC095C170C0FB80F980930203CC23FA
:100E400029F086E193E00E94B2050FC084E093E0B0
:100E50000E94B2050BC00E94582A07C0CE01DF9144
:100E6000CF911F910F910C946A06C0E08C2FDF91F7
:100E7000CF911F910F9108958295982F937344E01D
:100E8000949F900111248C7C86958695282B822F27
:100E90008575880F2A7A2695822B089508950C94DB
:100EA0004E0781E008950C945107CF93C82F0E94FC
:100EB0004F078C2F0E945307CF91089580E090E058
:100EC000089508952CE3829FC0011124FC0126E0BF
:100ED000729FE00DF11D1124E60FF11DEE0FFF1FB3
:100EE000EC5DFE4F859194910895880F991FFC0148
:100EF000E95DFC4F859194910895CF93DF930E9413
:100F000062070E948F08EC018115904508F043C0EC
:100F1000C11580E4D80708F0CBC0C03ED10528F544
:100F2000C03CD10508F0B3C0C83AD10578F4C53A41
:100F3000D10508F0A4C0C130D10509F4ECC008F413
:100F4000E8C0C430D10508F0E6C0E3C0CF3BD1050E
:100F500008F0DFC0C85AD0E0CC0FDD1FC35BDE4F06
:100F60000990D881C02DD464D6C0C11590E2D907AC
:100F700050F4C11521E0D20708F0CDC0C83ED1051C
:100F800008F4C9C0C6C0C11580E3D80708F086C000
:100F9000CE019F707FC0C11595E5D90708F043C009
:100FA000C11524E5D20708F09AC0C11582E5D8071B
:100FB00008F5C11591E5D90708F07DC0CE0174E0B0
:100FC000969587957A95E1F783709C2F937021E031
:100FD00030E002C0220F331F9A95E2F73C68382BAD
:100FE000CF70C695C69580E2C89FE0011124C22B40
:100FF000D32B91C09E01237033278C2F8695869525
:10100000C115D34508F05CC0C1E0D0E002C0CC0FF0
:10101000DD1F2A95E2F720E2829FC0011124C82B30
:10102000D92BDC6878C0C11529E5D207A0F4C11519
:1010300088E5D80708F058C0C11596E5D90708F02B
:1010400068C08C2F0E9423098F71C82FD0E0DC2F3D
:10105000CC27D06260C0C1152AE5D20708F449C088
:10106000CE0190568115904208F053C08D2F8F719C
:101070000E942309DD27D0628F71D82B4CC0C55A3E
:10108000D0E0C558DE4FC881D0E0D06444C0CE0166
:10109000805C91090E947507EC013DC0CE01992743
:1010A000D3FF03C0EC01D86C36C0EC01D06C33C068
:1010B000DF70D06A30C0DC2FCC27C16FD06A2BC064
:1010C000C1E0D0E002C0CC0FDD1F2A95E2F720E29C
:1010D000829FC0011124C82BD92BDA681CC0DC2FD9
:1010E000CC27C46FD06A17C0DC2FCC27C06FD06A62
:1010F00012C08C2F8F700E94230994E0D695C7955B
:101100009A95E1F7CF70D0E0DC2FCC27D069C82BBF
:1011100002C0C0E0D0E0CE01DF91CF9108958238C7
:10112000910569F1B0F48133910509F46DC048F47B
:101130008932910509F463C08A32910509F469C0C6
:1011400008958533910509F455C089339105B9F0A7
:101150000895833E910569F138F4803E9105B1F020
:10116000823E910509F10895863E9105A9F1873ED9
:101170009105B9F1843E910509F064C023C0209126
:10118000590320FD4FC021FD4DC0089580915903A2
:1011900080FD44C080915A0380FF44C08091590370
:1011A00084FD42C083EE4DC08091590382FF38C058
:1011B000F5CF8091590382FD33C080915A0380FDA1
:1011C00031C0ECCF80915A0381FF32C08091590326
:1011D00084FD2AC087EE35C08091590383FF26C065
:1011E000F5CF8091590383FD21C080915A0381FD81
:1011F0001FC0ECCF8091590385FD1CC01DC080919C
:10120000590385FD19C016C08091590386FD16C08B
:1012100017C08091590386FD13C010C089E311C027
:1012200082EE0FC080EE0DC080E00BC086EE09C0DC
:1012300084EE07C089E205C085E303C08AE201C0ED
:1012400081E390E008959091590392FF0DC0282FFB
:101250002871283019F4877F846006C0282F2471F4
:10126000243011F48B7F886093FF0DC0282F2871E4
:10127000283119F4877E846106C0282F2471243117
:1012800011F48B7E886120915A0320FF0DC0382F06
:101290003871383019F4877F816006C0382F31717A
:1012A000313011F48E7F886021FF0DC0282F287106
:1012B000283119F4877E816106C0282F21712131E0
:1012C00011F48E7E886194FD877E0895E82FF0E00A
:1012D000E55EFC4F80810895CF92DF92EF92FF92FE
:1012E0000F931F93CF93DF9386E393E00E94B205A1
:1012F0008BE1E82E83E0F82EC0E0D0E091E3C92E28
:1013000093E0D92E09E213E0DF93CF93DF92CF92DF
:101310000E944B068EE293E00E94B205F701819194
:101320007F010E943C071F928F931F930F930E948F
:101330004B0687E293E00E94B20521968DB79EB7D7
:1013400008960FB6F8949EBF0FBE8DBFCA30D10568
:10135000D9F6DF91CF911F910F91FF90EF90DF9021
:10136000CF90089580EA8A95F1F7089500C0089516
:101370000C94B20908950C94BA090C94BB090C940E
:10138000BA090C94BF09F894E82FE295EF70F0E0E9
:1013900031A1282F2F7081E090E001C0880F2A959D
:1013A000EAF7982F9095932391A392A1892B82A37A
:1013B000789408950895EF92FF920F931F93CF931F
:1013C000DF93CDB7DEB760970FB6F894DEBF0FBEE0
:1013D000CDBF0E94B40B80911401811131C0FE0178
:1013E00031962AE0DF011D922A95E9F721E329834E
:1013F00022E32A8322E92B8321EF2C8324EF2D8300
:10140000CF01EAE0F1E09E01255F3F4FDC014D9105
:10141000CD014193A217B307C9F726E0E7E4F1E055
:10142000DE011B9601900D922A95E1F7FC01A4E0E4
:10143000B1E0CE01419621912D93E817F907D9F734
:1014400080911401811102C095E001C090E0909359
:10145000260385E0891B809325030AE011E0F8014B
:1014600081918F010E94C309F1E00F301F07B9F786
:1014700004E011E08AE0E82E81E0F82ED8018D9199
:101480008D010E94C309E016F106C1F7E1E1F3E026
:10149000ABE1B3E08BE193E011921D928E179F07B1
:1014A000D9F785E00E94590B0E94BA0660960FB6E4
:1014B000F894DEBF0FBECDBFDF91CF911F910F918A
:1014C000FF90EF900C94C80B0F931F93CF93DF9373
:1014D00000D000D01F92CDB7DEB70E94970B60916D
:1014E0002603882309F442C08E010F5F1F4F85E059
:1014F000F80111928A95E9F7862F90E0B801855E90
:101500009C4F0E94841B811116C08091FC018F5F4B
:101510008093FC01863030F1E0912503F0E0E55E38
:10152000FC4FD801CE01069611921D92A817B9075B
:10153000D9F711E018C01092FC01A0912503B0E08A
:10154000A55EBC4FF8019E012A5F3F4F10E08191DC
:101550009C91981711F08C9311E01196E217F30704
:10156000B1F701C010E00E94C4060DC070E0655ED6
:101570007C4F8091250390E0855E9C4F0E94C01BAC
:101580000E94DA0910E0812F0F900F900F900F90BA
:101590000F90DF91CF911F910F9108958F929F929D
:1015A000AF92BF92CF92DF92EF92FF920F931F9371
:1015B000CF93DF938AE0A82E81E0B82EC1E1D3E07B
:1015C0009FE0E92E91E0F92E912C01E010E06501F9
:1015D000F5018081F894E82FE295EF70F0E021A109
:1015E0008F70A80102C0440F551F8A95E2F7CA0107
:1015F000922F982B91A392A18095892382A378940E
:101600000E94B609E4E0F1E020E030E0812C419155
:10161000A42FA295AF70B0E090968C9190E04F709F
:1016200002C0959587954A95E2F780FD07C0802F07
:10163000022E01C0880F0A94EAF701C080E0882AD0
:101640002F5F3F4F2630310511F75FEFA51AB50A1E
:10165000F60180810E94C3090E94B809888188161A
:1016600019F0888281E001C080E0982A2196EA146E
:10167000FB0409F0ACCF6091260370E0655E7C4FFF
:10168000292D45E081E193E00E945A0B0E94640AF3
:10169000992011F081E090E0DF91CF911F910F919F
:1016A000FF90EF90DF90CF90BF90AF909F908F9082
:1016B00008950895FF920F931F93CF93DF938C01AA
:1016C000F62ED72FC42F222349F081E08093FF010B
:1016D0000E94382B9093FE018093FD018091FF01C1
:1016E0008823C1F08091FD019091FE010E94502B52
:1016F000069780F0EF2DFD2FD8014C2F50E0CD0143
:10170000801B910B841795071CF48D918193F7CF63
:101710001092FF01DF91CF911F910F91FF900895DB
:1017200055985D9889B185FB882780F90895809147
:101730000002811112C08091D80080618093D8008E
:101740008AE18A95F1F700C08091D90080FD02C03E
:1017500082E001C081E08093000281E0909100026C
:10176000913009F080E008950E94900B809314015D
:101770008091140166E0882311F080E001C086E0CA
:101780000E94640C0E94970B81110C945B1B0895BE
:101790000E94970B811102C00C94611B0895EF9277
:1017A000FF920F931F93CF93DF938B01682F11113B
:1017B0000AC0442329F0E82FF0E0E15EF74F64917E
:1017C000762F862F75C0212F30E0E82FF0E04423DC
:1017D00021F0E15EF74FE491F0E046E0049FC001A4
:1017E0001124CFEFD0E0BE010E94A2334BEA4603A2
:1017F000C001479F900D1124800F911D800F911DF6
:10180000982F990F890FAE01421B530B4E9FD001A9
:101810004F9FB00D5E9FB00D11249B2F189FA0010C
:101820001124452F55278E01041B150B0E9FA00177
:101830000F9F500D1E9F500D11247E01E81AF108D4
:10184000E29E8001E39E100DF29E100D1124212FC7
:101850003327C21BD30BCE9F9001CF9F300DDE9F4D
:10186000300D112462307105A9F048F4611571053D
:1018700069F061307105C9F48B2F752F0DC064308C
:10188000710581F058F06630710579F47E2F8B2F49
:10189000932F0DC0832F7B2F9E2F09C08E2F7B2F60
:1018A000952F05C08E2F732F02C07E2F852F692F95
:1018B000DF91CF911F910F91FF90EF90089541E03C
:1018C0000E94CF0B08950895E8E1F1E080836183E1
:1018D00008950E945F0C0895CF93DF93762FE9015E
:1018E000682F842F0E94690C798368838A83DF9133
:1018F000CF91089580912703282F269530E0211558
:10190000310519F48170826005C02B32310524F055
:101910008170846580932703089588E090E00C949B
:101920009434CF92DF92EF92FF926B017C010E9480
:101930007A0CB701A60188E090E0FF90EF90DF906D
:10194000CF900C94B234E7E2F3E083E0808311821D
:101950008FEF828383831482AAE4B2E012968C9183
:101960001297836012968C9360817181828193813A
:101970000C94910C8091020380FF08C08DE696E0E4
:101980009F938F930E944B060F900F9080910203BC
:1019900080FF0FC08091270381701F928F9380E595
:1019A00096E09F938F930E944B060F900F900F909D
:1019B0000F908091020380FF0FC0809127038695CE
:1019C0001F928F9385E396E09F938F930E944B061F
:1019D0000F900F900F900F908091020380FF0EC028
:1019E000809128031F928F938BE196E09F938F93B2
:1019F0000E944B060F900F900F900F908091020362
:101A000080FF0EC0809129031F928F9381E096E0A2
:101A10009F938F930E944B060F900F900F900F9003
:101A20008091020380FF0EC080912A031F928F9342
:101A300087EE95E09F938F930E944B060F900F9037
:101A40000F900F908091020380FF0EC080912B03B6
:101A50001F928F938BEC95E09F938F930E944B0680
:101A60000F900F900F900F9008958091270380FFA3
:101A700002C08695089580E0089590912B039330DD
:101A800018F49F5F90932B03882351F060912703F4
:101A9000709128038091290390912A030C94910C52
:101AA000089581E00C943D0D90912B03992319F03A
:101AB000915090932B03882351F0609127037091EC
:101AC00028038091290390912A030C94910C089586
:101AD00081E00C94540D70E00C94F517609119019D
:101AE0008091270380FF0AC08091180123E0829F24
:101AF000C0011124845D9C4F0C946B0D80911A01E0
:101B000090911B01891780F7E82FF0E09F01220FC9
:101B1000331FE20FF31FE45DFC4F1182108212822B
:101B20008F5FF0CF9091270390FF16C090911A011C
:101B300020911B01921770F4E92FF0E0DF01AA0F4A
:101B4000BB1FEA0FFB1FE45DFC4F81836083428370
:101B50009F5FF0CF0C946E0D0895CF93DF9300D06C
:101B60001F92CDB7DEB79091270390FF0AC09E0168
:101B70002F5F3F4F0E946C0C4B8169818A810E94CC
:101B8000920D0F900F900F90DF91CF910895CF930A
:101B9000DF93EC01EC81F0E0E556F94F4491E7E288
:101BA000F3E0628181810E94AD0D8C818F5F8C8317
:101BB000DF91CF910895CF93DF93EC01E7E2F3E05B
:101BC000438162818C810E94AD0D8C818F5F8C83FB
:101BD000DF91CF9108950F931F93CF93DF9300D0A0
:101BE0001F92CDB7DEB78C018091010281110AC02E
:101BF0009E012F5F3F4F4FEF6FEF0E946C0C8A8169
:101C000080930102F8018481813051F028F0823004
:101C100061F4409101020AC08091010240E007C0D6
:101C20006091010240E080E003C040E080E060E0BD
:101C30000E94920DF801848190E0019663E070E0CB
:101C40000E94B63384830F900F900F90DF91CF9155
:101C50001F910F9108954F925F926F927F928F9292
:101C60009F92AF92BF92CF92DF92EF92FF920F932B
:101C70001F93CF93DF9300D01F92CDB7DEB7F82E1E
:101C8000D62EE42E622E9091270390FFC5C0E92F37
:101C9000E695AE2FB0E0A258BE4F8C9180934A02D9
:101CA0009E7F923061F49E012F5F3F4F8F2D0E94E7
:101CB0006C0C4B8169818A810E94920D62C08230D6
:101CC00019F4E0902A035DC0863019F4F0902803DF
:101CD00058C08930D9F3893109F053C0E9518E2FAA
:101CE0008170782E81E0C72CC826E695F0E0E55695
:101CF000F84FA590B490412CBB249CEE892E93E024
:101D0000992E60911C014616D0F5042D10E00A9D15
:101D1000C0010B9D900D1A9D900D112470E00E9442
:101D2000A2335F2C711002C0560E01C0561A80916A
:101D3000020380FF11C0BF92AF921F92CF921F92F9
:101D40005F921F924F929F928F920E944B060FB606
:101D5000F894DEBF0FBECDBF80911A01080F111D90
:101D60009801220F331F020F131F9801245D3C4F6F
:101D70004E2D6D2D852D0E946C0C4394C2CF0E9478
:101D80006E0D80912803F81208C080912903D812A3
:101D900004C080912A03E81629F080914C028260E9
:101DA00080934C02F0922803D0922903E0922A03F8
:101DB0006620E9F060912703709128038091290340
:101DC00090912A030E94910C8091020380FF24C00D
:101DD00080912A031F928F93809129031F928F93E2
:101DE000809128031F928F9387EC93E00CC0809121
:101DF000020380FF11C01F92EF921F92DF921F9289
:101E0000FF9280EA93E09F938F930E944B060FB658
:101E1000F894DEBF0FBECDBF0F900F900F90DF91F3
:101E2000CF911F910F91FF90EF90DF90CF90BF90D7
:101E3000AF909F908F907F906F905F904F9008959C
:101E4000E7E2F3E09181282F4381628188E0890FE6
:101E50000C942B0E81E00C94200FE7E2F3E09181CB
:101E6000282F4381628188EF890F0C942B0E81E02B
:101E70000C942D0FE7E2F3E0628121E1620F08F498
:101E80006FEF282F438181810C942B0E81E00C94FD
:101E90003A0FE7E2F3E0628121E1621B08F460E0BF
:101EA000282F438181810C942B0E81E00C94490FE3
:101EB000E7E2F3E0438121E1420F08F44FEF282FDE
:101EC000628181810C942B0E81E00C94580FE7E223
:101ED000F3E0438121E1421B08F440E0282F6281B6
:101EE00081810C942B0E81E00C94670F21E00C94FF
:101EF0002B0E20E00C942B0EFF920F931F93CF9389
:101F0000DF93EC01F12C0FEF10E060911C01F6164D
:101F1000F0F480911A012F2D30E0280F311DC901F6
:101F2000880F991F280F391F245D3C4F70E0C801AE
:101F30000E94B633962F8C8140912A036091290329
:101F4000F99E800D11240E946C0CF394DECF0E9448
:101F50006E0D9A818C8190FF02C08F5F01C081500D
:101F60008C83DF91CF911F910F91FF9008958F92F5
:101F70009F92AF92BF92CF92DF92EF92FF920F9318
:101F80001F93CF93DF93EC018A8180FF03C0BB24B2
:101F9000BA9402C0BB24B3948C8181110DC081E03E
:101FA000B81206C080911C0181508093030202C0C8
:101FB0001092030281E08C83A12C4CE0942E80913E
:101FC0001C01A81608F044C080911A01CA2CD12C1B
:101FD0008601080F111DC801880F991F080F191FCE
:101FE000045D1C4FF80111821082128234E0E32E4E
:101FF000F12C812C80910302880D8D302CF0692DFD
:102000000E949433892F05C087FF03C090911C0163
:10201000890F082E000C990BC816D90691F48091EF
:102020002A038E9DA0018F9D500D11245595479533
:1020300055954795980160912903809128030E9446
:102040006C0C8B0CF1E0EF1AF108A1F6A394B7CF5A
:102050000E946E0D8091030291E0B9120EC08111B1
:1020600007C080911C018150809303021C820FC025
:10207000815080930302BC820AC090E00196609177
:102080001C0170E00E94B633809303028C83DF91C1
:10209000CF911F910F91FF90EF90DF90CF90BF9065
:1020A000AF909F908F9008951F93CF93DF93EC0193
:1020B0008C81811109C081E08C831092020292E030
:1020C000909317018093160180911A0190911B0142
:1020D000891770F4E82FF0E09F01220F331FE20F01
:1020E000F31FE45DFC4F1182108212828F5FF0CFEC
:1020F00010E060911C011617C0F5E12FF0E070E0D0
:10210000CF010E94B63320911A01820F2091020262
:10211000022E000C330B90E0E217F307CCF0209175
:102120001701022E000C330B2E173F078CF09C0179
:10213000220F331F820F931F9C01245D3C4F40915F
:102140002A0360912903809128030E946C0C0BC024
:10215000FC01EE0FFF1F8E0F9F1FFC01E45DFC4F83
:102160001182108212821F5FC4CF0E946E0D809177
:10217000160120910202280F20930202909117016C
:10218000980F9093170119165CF4022E000C330B74
:1021900040911C0150E0415051092417350734F09B
:1021A000819580931601813009F41C82DF91CF91D3
:1021B0001F9108958F929F92AF92BF92CF92DF921C
:1021C000EF92FF920F931F93CF93DF938C01FC014B
:1021D0004481C42FD0E09E01DE010E94FA339B01AE
:1021E000AC010E9410346B017C01E0E2F0E0EC1BDA
:1021F000FD0BA5E5B0E09B01AC010E9410344B0142
:102200005C019F01DF010E94F2339B01AC010E943F
:102210001B349B01AC012C0D3D1D4E1D5F1DC501E6
:10222000B4010E94CA33C22FD22F2A3228F4F3E01D
:102230002F9F900111240DC025E530E02C1B3109A2
:10224000C901880F991F280F391F37FF02C02F5F60
:102250003F4F35952795C22FC095F12C85E5E82E87
:10226000ED1A80911C01F816C8F4F1FC02C08E2D05
:1022700001C08D2F90911A012F2D30E0290F311DB3
:10228000A901440F551F240F351F245D3C4F4C2FCF
:10229000609129030E946C0CF394E3CF0E946E0DB1
:1022A000F8018481811102C091E003C0803219F4E9
:1022B0009FEF9093150190911501890FF801848388
:1022C000DF91CF911F910F91FF90EF90DF90CF9012
:1022D000BF90AF909F908F9008950F931F93CF93CF
:1022E000DF93EC0100E010E080911C01282F30E02A
:1022F0000217130724F590911A019801290F311D37
:10230000A901440F551F240F351F245D3C4F8695AE
:1023100090E04C81081719071CF4442331F002C0E7
:10232000411103C040912A0301C040E0609129039C
:10233000809128030E946C0C0F5F1F4FD5CF0E9425
:102340006E0D8C8190E00196817099278C83DF91CE
:10235000CF911F910F9108957F928F929F92AF928C
:10236000BF92CF92DF92EF92FF920F931F93CF9382
:10237000DF93FC018280748081E08483EBE9F6E0E6
:102380009490EAE1F7E0E491A12CF5E0BF2ECC2493
:10239000CA94D12CE9190E2F10E080911C01A816C7
:1023A00008F0A2C0EA2CF12C22E0281568F0BE9CAF
:1023B000F001BF9CF00D1124E95FFD4F80912803CF
:1023C000808380912903818371100AC0BE9CF00133
:1023D000BF9CF00D1124E95FFD4F138212826AC089
:1023E000BE9CE001BF9CD00D1124C95FDD4F8B81E5
:1023F0008823F9F081508B832FEF829FC001112435
:102400006C8170E00E94A233FB01FF27E556F94F73
:102410008491E82FE9192FEFE29FC0011124B80140
:102420000E94A23380912A03689FB00111247A830D
:1024300041C00E946F3420912A032695215830E034
:10244000A901440F551F322F2227240F351F232F98
:1024500033278217930774F582E0881588F40E9469
:102460006F34B6010E94B63388830E946F34209186
:1024700029032695622F70E00E94B633280F298326
:10248000BE9CF001BF9CF00D1124E95FFD4F12824C
:1024900080912A03843120F0893C18F088EC01C037
:1024A00084E1BE9CF001BF9CF00D1124E95FFD4F5B
:1024B0008483838380911A019701280F311DC901FC
:1024C000880F991F280F391F245D3C4FBE9CF001D7
:1024D000BF9CF00D1124E95FFD4F42816181808135
:1024E0000E946C0CA39459CFDF91CF911F910F9153
:1024F000FF90EF90DF90CF90BF90AF909F908F9024
:102500007F900C946E0D80914C02089510924C02B5
:10251000089525E0E7E2F3E0DC0101900D922A95B1
:10252000E1F720914A0230914B0240914C02FC01AC
:102530002583368347830895EAE4F2E0118282819D
:1025400084608283089560912703669570E04BE074
:1025500050E08DE191E00E947F34892B19F481E0F5
:1025600080934B020E94C62B9093440280934302B7
:1025700080914C02846080934C028091020380FF22
:1025800008C087E893E09F938F930E944B060F90BB
:102590000F90089510924B0280914C0284608093BA
:1025A0004C028091020380FF08C08EE693E09F9367
:1025B0008F930E944B060F900F90089590912703E0
:1025C00090FF59C09170811102C0926006C08B3299
:1025D00010F0946502C0880F982B90932703809188
:1025E0004C02816080934C026623B1F06091270316
:1025F000709128038091290390912A030E94910CE5
:102600008091020380FF1BC08091270386951F9253
:102610008F9381E195E00BC08091020380FF0FC092
:102620008091270386951F928F9383EF94E09F9369
:102630008F930E944B060F900F900F900F90609118
:102640002703669570E04BE050E08DE191E00E9439
:102650007F34892B19F00E94CA1202C00E94A31273
:1026600081E08093460240912A0360912903809182
:1026700028030C94790F0895682F9091270396955D
:1026800081E0890F8B3208F081E00C94DE1281E04A
:102690000C943C13682F9091270396958FEF890F28
:1026A00009F48AE20C94DE1281E00C944A1361E092
:1026B0000C94DE1280912703816080932703809120
:1026C000020380FF0DC01F9281E08F9385E894E0A4
:1026D0009F938F930E944B060F900F900F900F9037
:1026E0008091270386950C94571360E00C94DE12BA
:1026F00080914902811165C08091020380FF08C06A
:1027000084EB95E09F938F930E944B060F900F9060
:102710008091020380FF08C08EE995E09F938F931C
:102720000E944B060F900F900E94AF29811110C09C
:102730008091020380FF08C086E795E09F938F9306
:102740000E944B060F900F900E94582A0E94A30CE3
:102750000E948D0C609327037093280380932903B4
:1027600090932A0380914C02836080934C026E7F89
:10277000C1F48091020380FF08C08DE295E09F9331
:102780008F930E944B060F900F900E94A30C0E9403
:102790008D0C6093270370932803809329039093F3
:1027A0002A030E947A0C0E94BA0C0E949C1280910B
:1027B000270380FF03C086950E94751381E08093F4
:1027C00049020895809127038E7F809327036091AB
:1027D0002703709128038091290390912A030E9476
:1027E000910C8091020380FF0FC0809127038170BC
:1027F0001F928F938DE494E09F938F930E944B06DA
:102800000F900F900F900F900E94CA1280914C026F
:10281000816080934C022FEF80E792E0215080404E
:102820009040E1F700C000000C946E0D809102030F
:1028300080FF10C080912703809581701F928F9335
:102840008CEB94E09F938F930E944B060F900F9018
:102850000F900F908091270380FD0C94E2130C944D
:102860005A13809127038E7F809327038091020360
:1028700080FF0CC01F921F9283E194E09F938F937F
:102880000E944B060F900F900F900F900E94CA125B
:1028900080914C02816080934C022FEF80E792E0A0
:1028A000215080409040E1F700C000000C946E0D74
:1028B0001F93CF93DF93EC01162F8F8180FF0FC002
:1028C000888180FF0AC0809127038160809327035D
:1028D000888186950E94DE1202C00E9431148F8189
:1028E00081FF06C0212F4B816A8189810E942B0EB6
:1028F0008F8182FF08C08E81882319F00E94A31265
:1029000002C00E94CA128F8183FF03C081E08093BE
:102910004602DF91CF911F910895EF92FF920F939E
:102920001F93CF93DF9380914B02882309F4CDC08E
:1029300080914A02E0912703E695E81BE093450267
:10294000823049F4F0E0E956F94FE491CE2FD0E01F
:1029500007EC1DE059C0863049F4F0E0EC56F94F21
:10296000E491CE2FD0E00BED1DE04EC0893051F444
:10297000E695F0E0EF56F94FE491CE2FD0E00CE76A
:102980001FE042C08F3051F4E695F0E0E257F94F76
:10299000E491CE2FD0E007EB1FE036C0853149F43B
:1029A000F0E0E557F94FE491CE2FD0E004E510E1D7
:1029B0002BC08831D9F0833239F4E9E8F6E0C591CB
:1029C000D4910BEE1DE020C08432A9F08532C1F411
:1029D0008E2F63E00E948833E92FF0E0EA57F94F29
:1029E000E491CE2FD0E00CEA11E10EC0C8E2D0E0B5
:1029F0000AED10E109C0C4EFD1E00DE611E104C019
:102A0000C0EDD7E003E61CE080914602882361F028
:102A1000109246020E94C62B909344028093430278
:102A200010924802109247020E94C62B2091430246
:102A300030914402AC01421B530B9A012F3F3F4798
:102A400008F043C020910602222311F110920602E1
:102A50002091040230910502821B930B8F3F9F4708
:102A6000B8F4205D3A483093050220930402809127
:102A7000020380FF08C085E493E09F938F930E9438
:102A80004B060F900F9080914C02886080934C020F
:102A9000E0904702F0904802E0914302F091440236
:102AA000CE0FDF1FD0934402C093430283E492E031
:102AB000F80109958091470290914802892B29F4E9
:102AC000EF2819F081E080930602DF91CF911F91EA
:102AD0000F91FF90EF900895882311F0FA0101C043
:102AE000FB010994CF93DF93C82FD62F0E94350D99
:102AF0008C1740F00E94350D8D1720F4DF91CF9197
:102B00000C9447138C2FDF91CF910C9457131F9384
:102B1000CF93DF93FB011281111163C0EC010E947E
:102B2000FE288272FE01E35CFC45E431F10508F009
:102B300057C0EA5AFF4F0C94EC330E94161451C050
:102B400044E553E167E473E104C047E453E164E51D
:102B500073E10E946C1545C047E35FE06AE27FE0E5
:102B6000F8CF4AE25FE067E37FE0F3CF45E55FE05F
:102B700066E47FE0EECF46E45FE065E57FE0E9CF25
:102B800043E75FE064E67FE0E4CF44E65FE063E7CD
:102B90007FE0DFCF48E65DE061E57DE0DACF41E54B
:102BA0005DE068E67DE0D5CF81E017C065E082E0BA
:102BB00010C068E086E00DC06EE089E00AC064E104
:102BC0008FE007C067E185E104C088E106C062E2EA
:102BD00089E10E94721505C083E20E94571301C06B
:102BE00011E0812FDF91CF911F91089580915003C3
:102BF00081700895809150038695869586950895F5
:102C00000E94AF29811102C00E94582A0E94E02927
:102C100080935003282F26952695269530E0263060
:102C2000310524F0877088628093500380915003AF
:102C300080FF04C086958695869501C080E00C943F
:102C40007B1720915003822F869586958695482F75
:102C500050E04530510554F48F5F982F990F990F2C
:102C6000990F822F8770892B809350038091500396
:102C70008160809350030E94E4298091020380FFC9
:102C800011C0809150038695869586951F928F93EB
:102C900087E098E09F938F930E944B060F900F90D0
:102CA0000F900F90809150038695869586950C9491
:102CB0007B1780915003982F969596959695A1F045
:102CC000915E990F990F990F8770892B809350030C
:102CD000887F91E009F490E08091500390FB80F9A7
:102CE000809350030E94E4298091020380FF11C069
:102CF000809150038695869586951F928F938FEECF
:102D000097E09F938F930E944B060F900F900F9028
:102D10000F90809150038695869586950C947B172D
:102D20008091500380FD1FC08160809350038130EB
:102D300019F489E080935003809150030E94E429A4
:102D40008091020380FF08C087EC97E09F938F93E8
:102D50000E944B060F900F908091500386958695A8
:102D600086950C947B1708958091500380FF14C0C2
:102D70008E7F809350030E94E4298091020380FF9C
:102D800008C084EB97E09F938F930E944B060F90AF
:102D90000F9080E00C947B170895CF93C09150035F
:102DA000C1708091020380FF0CC01F92CF9389ED08
:102DB00097E09F938F930E944B060F900F900F9078
:102DC0000F90CC2319F0CF910C94B416CF910C94A2
:102DD000901690915003892F8695869586958F5FE2
:102DE0008F719770863038F4880F880F880F892B81
:102DF0008093500302C09093500380915003887FCA
:102E000091E009F490E08091500390FB80F9809369
:102E100050030E94E4298091020380FF11C0809139
:102E200050038695869586951F928F9380EA97E04A
:102E30009F938F930E944B060F900F900F900F90CF
:102E4000809150038695869586950C947B178630E5
:102E500008F085E0909150039770282F220F220FE1
:102E6000220F922B90935003987F21E009F420E0E9
:102E70009091500320FB90F9909350030C947B1792
:102E80000E942717809150030C94E4299C01FB01B8
:102E90008281882349F12E3BFCE53F07C9F040F4CD
:102EA0002C3BECE53E0769F02D3B3C4561F0089575
:102EB000203C9CE5390791F070F0213C3C4589F0BD
:102EC000089585E001C080E00E94401780E00895E9
:102ED0000E945916FBCF0E942116F8CF0E94CD16F2
:102EE000F5CF0E94E916F2CF81E00895259A2D983A
:102EF00008952D980895CF92DF92EF92FF92CF938D
:102F0000C82F863050F4811109C0809180008F77DE
:102F1000809380000E94791706C0C5E080918000F0
:102F20008068809380002C2F30E0AFEFBFEF0E94CD
:102F3000FA3325E030E040E050E00E94CA33B42F7D
:102F4000A32F922F8827492F5A2F6B2F7727CA013B
:102F50004C3724E1520728F469E070E00E94A23364
:102F600029C0DB01CA018A50974DAF4FBF4F66277A
:102F7000782F892F9A2F25EF38E241E050E00E9408
:102F8000CA3369017A01CA01B9010E9478339B01F1
:102F9000AC01C701B6010E947833BB27A92F982F37
:102FA000872F009721E0A207B10511F0BC0102C0F4
:102FB0006FEF7FEF7093890060938800CF91FF904F
:102FC000EF90DF90CF90089508950E94761782E8E1
:102FD0008093800089E1809381008FEF9FEF909331
:102FE0008700809386000C940016569A2BB12F7B95
:102FF0003BB130644FB7F894FC01CB01880F991FA7
:10300000680F791F6E0F7F1FE617F70789F0819110
:1030100098E03BB9000000C087FF2BB9880F000083
:1030200000C000C000C02BB900C09A9591F7ECCF4A
:103030004FBF8FE594E00197F1F700C000000895BD
:1030400008950C94201880911401882309F447C036
:1030500020912901A22FA295AF70B0E091963C91EA
:1030600091972F7081E090E0AC01022E01C0440FD7
:103070000A94EAF7542F5095352391963C939197F3
:1030800092963C919297432B92964C9392974091B3
:103090002801E42FE295EF70F0E031A14F70042E8B
:1030A00001C0880F0A94EAF7982F9095932391A373
:1030B00092A1892B82A390968C9190E002C0959565
:1030C00087952A95E2F7817020A130E002C03595FE
:1030D00027954A95E2F720FD09C090E008C087EFE8
:1030E0008093290186EF80932801B2CF92E0892B4B
:1030F000809352029091140181E0982790934E02A0
:10310000891B80934D020895CF93E09152025E2F68
:10311000550F550F20912901E22FE295EF70F0E055
:1031200080A190E02F7002C0959587952A95E2F7CF
:103130008170992740912801E42FE295EF70F0E02B
:1031400020A130E04F7002C0359527954A95E2F7EF
:10315000F901E170FF2720FF02C0E2E0F0E0E82B78
:10316000F92BE52BE0935202C0914E02EF70F0E094
:10317000E755FE4F908180915102890F8093510253
:1031800084307CF0EC2F0C2E000CFF0BE15BFD4F2C
:1031900080818F5F808360E08C2F0E94211821E066
:1031A00001C020E0809151028D3F74F4EC2F0C2E71
:1031B000000CFF0BE15BFD4F80818150808361E05B
:1031C0008C2F0E94211821E080915102082E000CC2
:1031D000990B64E070E00E94B63380935102822F15
:1031E000CF910895E0914E02F0E0E15BFD4F208128
:1031F000FC0120830895FF920F931F93CF93DF93D9
:10320000D0914D020D2F10E0015B1D4FFC01C081DC
:10321000F8018081C81BFC2E80E01F145CF4FA9436
:10322000F80180818F5F808360E08D2F0E942118DC
:1032300081E0F3CF9C2FC7FD90E0C91BCC2359F050
:10324000CF5FF80180818150808361E08D2F0E94E3
:10325000211881E0F3CF882339F0DF91CF911F91BE
:103260000F91FF900C94431EDF91CF911F910F910E
:10327000FF9008950F931F93CF93DF93C42FD22F06
:10328000FC0182818823C9F0409355020E94382BAB
:10329000909354028093530280E28C0F883008F0A0
:1032A00057C0C77081E001C0880FCA95EAF7DF9167
:1032B000CF911F910F910C94B22080915502481329
:1032C00030C080915302909154020E94502B883C50
:1032D000910538F510E21D0FCD17B9F080E28C0F83
:1032E000883040F4C77081E001C0880FCA95EAF7C2
:1032F0000E94B920183028F581E09D2F977001C0F9
:10330000880F9A95EAF70E94B220802F0E94A92088
:103310001830F0F4D77081E001C0880FDA95EAF731
:103320000AC080E28C0F883098F4C77081E001C039
:10333000880FCA95EAF7DF91CF911F910F910C94F6
:10334000B920802FDF91CF911F910F910C94A9206C
:10335000DF91CF911F910F9108950F939C01CB01A5
:10336000243F4CE5340731F188F4293DFCE53F0763
:10337000D9F02A3D4CE5340779F1283D3C45A9F5C3
:1033800006E221EE41EE68ED7CE52BC0263FFCE530
:103390003F07E1F0A8F0273F3C4539F507E225EE6D
:1033A00046EE67EF7CE51DC007E225EE45EE69EDD0
:1033B0007CE517C006E221EE40EE64EF7CE511C02B
:1033C00007E225EE44EE65EF7CE50BC006E221EE58
:1033D00042EE66EF7CE505C008E221E045EE6AEDCD
:1033E0007CE50E943A1980E008C0FC0182818823B4
:1033F00019F01092550201C081E00F910895CF930A
:10340000DF93EC01FB018281882309F41FC1C230E4
:10341000FCE5DF0708F41BC1C6319CE5D90738F08D
:103420009E012B5F3C452930310508F010C10E94F8
:10343000C22990935A0380935903C031ECE5DE070B
:1034400009F4C3C008F041C0C8308CE5D80709F4BE
:103450009AC0F0F4C430ECE5DE0709F487C068F4E4
:10346000C2308CE5D80709F477C0C330DC4509F0D9
:10347000E3C080915903826076C0C630ECE5DE0778
:1034800009F46EC008F07BC08091590388606BC05E
:10349000CC308CE5D80709F485C068F4CA30ECE577
:1034A000DE0709F474C008F079C00E9430238091CF
:1034B0005903806858C0CE308CE5D80709F476C02F
:1034C00008F07FC0809159038BC0CC3FECE5DE074C
:1034D00009F44FC018F5C3318CE5D80709F47DC055
:1034E00078F4C131ECE5DE0709F473C0C231DC4584
:1034F00009F0A2C00E943023809159038F7733C016
:10350000C5318CE5D80709F472C008F486C0CB3FFA
:10351000DC4509F091C080915A033EC0C115FDE51C
:10352000DF0709F45FC058F4CE3F9CE5D90709F4E2
:1035300044C008F43FC080915A0382602DC0C2305D
:10354000FDE5DF0709F475C008F45DC0C330DD4553
:1035500009F072C080E06EC080915903816003C0A1
:103560008091590380618093590366C0809159030B
:1035700011C080915A03826080935A035DC080918C
:1035800059038062F0CF809159038064ECCF809121
:10359000590388608460E7CF8160EECF8091590342
:1035A0008E7FE1CF809159038D7FDDCF80915903CC
:1035B000877FD9CF80915A0318C080915A038D7F9D
:1035C000DBCF809159038F7ECECF809159038F7DC1
:1035D000CACF809159038F7BC6CF80915903877FD3
:1035E0008B7FC1CF80915A038D7F8E7FC5CF809115
:1035F000590382FB222720F991E0922790FB82F960
:1036000090FB83F9B0CF80915A03982F90959170D9
:103610008E7F892B90FB81F9AFCF0E943023809160
:10362000590387FB222720F991E0922790FB87F925
:103630009ACF81E00E945A2A8091590390915A03AF
:103640000E94D3290E94302380E001C081E0DF91F5
:10365000CF910895CF93DF9386319C4541F5EB01DF
:103660000E94FE28982F8A8120913A0130913B01D7
:10367000882379F09A7A81E009F480E080935602F9
:10368000911102C069E201C065E3C9010E94A12A4B
:103690000AC080915602811102C069E201C065E34F
:1036A000C9010E94A32A0E944C2980E001C081E048
:1036B000DF91CF91089562E070E08AE291E00C948E
:1036C000451C62E070E08AE291E00C944E1C0E947E
:1036D0008312882361F084E692E00E94891281E0DF
:1036E00090E00E94271D892B11F40C9486120895F6
:1036F00080916302883039F460E084E692E00E94B1
:103700005814109263020895CF93DF93D62FC72FDA
:103710000E94671B80E090E00E94271D892B61F5C5
:10372000ED2FFC2F80E090E0DC01A35ABD4F2C91DF
:103730002193019685309105B9F70E94F6158823EB
:1037400019F00E94FA1501C080E080935C0282E6C5
:1037500092E00E94FB180E94AB2BDC01CB01029689
:10376000A11DB11D8093580290935902A0935A0253
:10377000B0935B0281E001C080E0DF91CF910895BA
:10378000CF93DF93D62FC72F0E94781B60915802EA
:103790007091590280915A0290915B020E948E2B87
:1037A000ED2FFC2F80E090E02191DC01A35ABD4F6A
:1037B0002C93019685309105B9F780915C020E94A7
:1037C0007B1782E692E0DF91CF910C94F2188EE1A4
:1037D000489B02C08150E1F7489BFECF089558985E
:1037E00080E28A95F1F7589A0895FC012AE02A951B
:1037F000F1F790E020E080E031E0261779F040E139
:103800004A95F1F7880F489B02C08160932700C05A
:10381000000040E14A95F1F72F5FEFCF20E12A95B4
:10382000F1F729B100C0000030E13A95F1F72170BD
:1038300092272081920F90830895EF92FF920F9329
:103840001F93CF93DF931F92CDB7DEB719828C0100
:103850007C01E60EF11C0E151F0559F00E94E71BB6
:1038600068E0CE0101960E94F51BF80181938F015B
:10387000F2CF81E09981911180E00F90DF91CF919B
:103880001F910F91FF90EF90089590936E02809397
:103890006D0260936C02509A589A089590936E024C
:1038A00080936D0260936C025098589AE89AE9E60A
:1038B000F0E080818C7F80830895615091E001C0A9
:1038C000990F6A95EAF720E031E0992361F0492FDA
:1038D000482319F0589A232701C0589840E24A9586
:1038E000F1F79695F2CF222311F0589A01C058981B
:1038F00080E28A95F1F758980895FF920F931F93ED
:10390000CF93DF93EC018C01060F111DC017D10777
:1039100041F0F9900E94EF1B68E08F2D0E945D1C22
:10392000F5CFDF91CF911F910F91FF9008951F92D6
:103930000F920FB60F9211240F931F932F933F9363
:103940004F935F936F937F938F939F93AF93BF93A7
:10395000EF93FF93CF93DF931F92CDB7DEB719821A
:103960000E94E71B67E0CE0101960E94F51B382FED
:10397000369536953695932F96959570232F25700D
:10398000920F292F2370969596958770920F891321
:1039900048C08981811145C080916C02831708F469
:1039A00040C080E18A95F1F7589A509AA2E0AA9512
:1039B000F1F700C000916D0210916E02B8E03B9FDC
:1039C000000D111D11245898F8016581662321F01E
:1039D000868197810E947D1C0E94EF1BF0E1FA9581
:1039E000F1F758985098589A80E18A95F1F7D801E4
:1039F00012966C911297662369F013968D919C91A3
:103A000014970E941D1CD801ED91FC91811105C0F5
:103A100082E004C0D801ED91FC9188E080830E948F
:103A2000E71B0F90DF91CF91FF91EF91BF91AF9185
:103A30009F918F917F916F915F914F913F912F91C6
:103A40001F910F910F900FBE0F901F9018950F931D
:103A50001F93CF93DF9320916C0230E02817390732
:103A60000CF471C09C0193E0220F331F9A95E1F78B
:103A7000C0916D02D0916E02C20FD31FF894509A7C
:103A8000589845E04A95F1F70000982F9695957063
:103A90008570890F982F937086958695890F890177
:103AA000082B0E94EF1B84E08A95F1F700C067E0C5
:103AB000802F0E945D1C40E14A95F1F75098589A7A
:103AC000489902C000C0FCCF87E090E0489B0EC040
:103AD000019751F4509A589AE881F98181E08083E6
:103AE000789481E090E031C000C0F0CF6D81662312
:103AF00081F08E819F810E941D1C81110AC0509A05
:103B0000589AE881F98182E08083789482E090E09D
:103B10001CC00E94E71B80E28A95F1F75898509AE2
:103B200040E14A95F1F76A81662321F08B819C81FF
:103B30000E947D1C0E94EF1BE881F981108278941D
:103B400080E090E002C084E090E0DF91CF911F918F
:103B50000F91089590937402809373020895E091F9
:103B60007302F0917402309721F00190F081E02D02
:103B7000099480E00895EF92FF920F931F93CF93E3
:103B8000DF93E0917302F09174023097B1F18C01F0
:103B90000280F381E02D09958091020382FF2DC000
:103BA00080FF04C087E299E00E94B205E80118E0B6
:103BB00081E2E82E89E0F82E8091020380FF0BC09D
:103BC00088811F928F93FF92EF920E944B060F9075
:103BD0000F900F900F90115021961111EDCF809101
:103BE000020380FF0AC08FE199E0DF91CF911F911E
:103BF0000F91FF90EF900C94B205DF91CF911F9140
:103C00000F91FF90EF900895209171023091720210
:103C10002817390771F09093720280937102E09136
:103C20007302F0917402309721F00680F781E02D45
:103C30000994089520916F02309170022817390776
:103C400071F09093700280936F02E0917302F09193
:103C50007402309721F00084F185E02D09940895D5
:103C60000E94442B609388027093890280938A0299
:103C700090938B02609384027093850280938602F6
:103C80009093870208950E94442B6093880270935A
:103C9000890280938A0290938B02609380027093D2
:103CA00081028093820290938302089585B7806891
:103CB00085BF85B7806885BF08950C94970B0895DC
:103CC0000C945F1E0C945F1E0C94621E0C945F1E7D
:103CD0000C94661E0C945F1E0E94561E87EB9DE29C
:103CE0000E94F32B0E946A1E0C94681E0E942F2BC8
:103CF0000E94852B0E94DB090E94F82B0E9400166F
:103D00000E9478130E9423180C94641ECF93C82F2E
:103D10008091020382FF1EC080FF04C080E499E00E
:103D20000E94B2058091020380FF0CC01F92CF93C6
:103D30008BE399E09F938F930E944B060F900F9017
:103D40000F900F908091020380FF04C089E399E0F7
:103D50000E94B2058C2FCF910C9455079F92AF9281
:103D6000BF92CF92DF92EF92FF920F931F93CF9368
:103D7000DF93CDB7DEB72A970FB6F894DEBF0FBE3C
:103D8000CDBF0E94601E0E945F1E0E94CE0A81115C
:103D90000E94301E86E7A82E82E0B82E00E010E0D8
:103DA000902E802F0E946609D82EF501C1905F01E8
:103DB000C826B1F40F5F1F4F0A30110589F78FEF46
:103DC00089838A831B820E94382B8160782F9D8390
:103DD0008C8349815A816B818D810E94571F2FC02E
:103DE0008091020381FD0E946C09E12CFF24F39471
:103DF0008C2D8F21F1F00E945D1E882399F0EE82B8
:103E00009F82DF2081E009F480E088870E94382BC0
:103E10008160782F9A8789874E815F8168858A853E
:103E20000E94571FF801EA58FD4F8081F826F08262
:103E300006C0E394FF0CF6E0EF12DACFBBCF0E948E
:103E40008D140E94E4170E94841881110E94431E61
:103E50000E94AF1D909175028917B9F00E94AF1DA5
:103E6000809375022A960FB6F894DEBF0FBECDBFC1
:103E7000DF91CF911F910F91FF90EF90DF90CF9046
:103E8000BF90AF909F900C94861E2A960FB6F89420
:103E9000DEBF0FBECDBFDF91CF911F910F91FF907D
:103EA000EF90DF90CF90BF90AF909F900895DF92FA
:103EB000EF92FF920F931F93CF93DF93CDB7DEB7AF
:103EC0002B970FB6F894DEBF0FBECDBFF42E052F93
:103ED000162FE72ED82E61110E941E29FE01319661
:103EE00086E0DF011D928A95E9F77E2D4F2D502F38
:103EF000612F8D2D9E810E94E9252B960FB6F89497
:103F0000DEBF0FBECDBFDF91CF911F910F91FF900C
:103F1000EF90DF900895FC01808191810E94BF287D
:103F20000895CF93882309F49CC0C82F8238C1F428
:103F30000E94AF1D81FD95C069E380913A01909187
:103F40003B010E94A12A0E944C292FEF81EE94E0B0
:103F5000215080409040E1F700C0000069E319C0A3
:103F6000833801F50E94AF1D80FD7BC063E5809121
:103F70003A0190913B010E94A12A0E944C292FEF07
:103F800081EE94E0215080409040E1F700C00000B5
:103F900063E580913A0190913B010E94A32ACF9161
:103FA0000C944C298438C1F40E94AF1D82FD59C085
:103FB00067E480913A0190913B010E94A12A0E94FE
:103FC0004C292FEF81EE94E0215080409040E1F7A2
:103FD00000C0000067E4DDCF8CEF8C0F813AD0F495
:103FE0006C2F80913A0190913B010E946B2A8823AB
:103FF00049F06C2F80913A0190913B010E94A32AD5
:104000000E944C296C2F80913A0190913B010E94B3
:10401000A12AC5CF80E28C0F883048F4C77081E0B8
:1040200001C0880FCA95EAF70E940129B8CFEBE5D5
:10403000EC0FE33040F4F0E0E951FE4F808190E076
:10404000CF910C94041EC85AC73158F4EC2FF0E0FD
:10405000EE0FFF1FE754FE4F80819181CF910C94AA
:104060001A1ECF910895882309F45BC0682F823807
:1040700079F40E94AF1D81FF54C069E380913A0139
:1040800090913B010E94A12A0E944C2969E310C033
:104090008338B1F40E94AF1D80FF43C063E5809177
:1040A0003A0190913B010E94A12A0E944C2963E5AC
:1040B00080913A0190913B010E94A32A0C944C29D3
:1040C000843879F40E94AF1D82FF2BC067E4809191
:1040D0003A0190913B010E94A12A0E944C2967E479
:1040E000E7CF8CEF860F813A18F380E2860F883095
:1040F00048F4677081E001C0880F6A95EAF70E9472
:104100000729DCCF8BE5860F833020F480E090E038
:104110000C94041E685A673120F480E090E00C94FF
:104120001A1E08951F93CF93DF93182FEB010E945F
:10413000911F209741F08FE99FE00197F1F700C0B0
:1041400000002197F6CF812FDF91CF911F910C9422
:104150003320893319F060E070E002C060E570E060
:104160000C949220882321F00E9401290C944C2960
:104170000895882321F00E9407290C944C29089562
:10418000CF92DF92EF92FF920F931F93CF93DF9323
:104190007C01062FC72FFC01D281158112951F705B
:1041A0000E94F728882399F0DD2389F08C2F807FE7
:1041B000803421F080E2800F883048F082E00E9455
:1041C00096290E94F72891E0D82ED92601C0D12C3B
:1041D000CC2EC2948FE0C8228C2D90E0FC01E659D1
:1041E000FF4F0C94EC338C2F807FCF70882311F01D
:1041F000C295C07FDD2399F0CC2309F482C180E20F
:10420000800F883010F0011104C08C2F0E9401290A
:1042100003C08C2F0E9411290E944C2972C1802F4B
:104220000E943320CC2309F491C180E2800F8830B2
:1042300010F0011104C08C2F0E94072903C08C2F9D
:104240000E9417290E944C2981C18C2F807FCF703A
:10425000803211F0C295C07F002319F00130C9F0FF
:1042600022C0DD2371F0112341F0113031F40E949E
:1042700031298C2B0E94392969C10E9431298C2B4C
:104280001DC0112319F0113009F460C10E944229A8
:1042900025C0DD2321F0163008F058C10EC01530BE
:1042A00008F054C11BC0DD2361F0112331F0F70188
:1042B000858180FF26C18F7085838C2F0E94B2205C
:1042C00045C1112359F0093309F02CC1FFEF27EE46
:1042D00083E0F15020408040E1F722C18C2F0E9402
:1042E000B92034C18C2F86958695837019F0813062
:1042F00061F02CC1DD2321F0802F9C2F937002C030
:1043000080E090E00E94041E29C1DD2321F0802F6F
:104310009C2F937002C080E090E00E941A1E1EC184
:104320008C2F837009F045C0D11114C1402F4295E4
:1043300046954770440F440F602F6F70862F90E0B2
:10434000A0E0B0E0042E04C0880F991FAA1FBB1F75
:104350000A94D2F704FF10C00FE010E020E030E034
:1043600004C0000F111F221F331F4A95D2F700957A
:1043700010952095309503C000E010E09801C69597
:10438000C695C370BC01CD01602B712B822B932B82
:10439000C23049F058F4C13019F00E943A27DAC00F
:1043A0000E942827D7C00E944C27D4C00E942627ED
:1043B000D1C0DD2319F08C2F817001C08695882330
:1043C00009F4C8C0402F429546954770440F440FEA
:1043D000602F6F70862F90E0A0E0B0E0042E04C044
:1043E000880F991FAA1FBB1F0A94D2F704FF10C0A1
:1043F0000FE010E020E030E004C0000F111F221F8A
:10440000331F4A95D2F7009510952095309503C03B
:1044100000E010E09801C695C695C370BC01CD01BF
:10442000602B712B822B932BC23049F058F4C13092
:1044300019F00E94FF278EC00E94ED278BC00E94BA
:10444000112888C00E94602785C0CF70DD2339F015
:104450008C2F0E948627802F0E94B2207BC0802F45
:104460000E94B9208C2F0E94A72774C0023F01F13F
:1044700028F4003F41F0013FA1F03FC0033FF9F0B5
:10448000043F39F13AC0DD2341F0153008F05EC039
:104490008C2F8F710E94CC2759C0163008F056C05F
:1044A000F7CFDD2339F08C2F8F710E9486274EC005
:1044B000DD23C9F38C2F8F710E94A72747C0DD230E
:1044C00029F08C2F8F710E94712740C00E946C27A9
:1044D0003DC0DD2349F0CF718C2F0E94862763E019
:1044E0008C2F0E94812932C081E00E9496291230CF
:1044F00068F182E00E94962929C0DD2331F0112362
:1045000091F2802F0E94911F21C0112399F209334B
:1045100049F49FEFE7EEF3E09150E040F040E1F71F
:1045200000C00000802F0E94332010C04C2F4F701D
:10453000602FC7010E945E070E9497260FC04C2F74
:104540004F70602FC7010E94610708C088EF8C0D73
:10455000843020F40E94AF1D0E945507DD20C9F071
:104560000E94F32880FD15C0F70112820E94ED28F9
:104570000E948627C7010E94EA220E94ED28DF914F
:10458000CF911F910F91FF90EF90DF90CF900C94FF
:10459000A727DF91CF911F910F91FF90EF90DF90B0
:1045A000CF9008950F931F93CF93DF93EC01688111
:1045B00079818A810E94CA288C010E9423280E9446
:1045C0001427B801CE010E94C020DF91CF911F9126
:1045D0000F910895CF93DF93EC01988189812B810E
:1045E0003C81232B31F08F3F31F481E09F3F19F460
:1045F00003C081E001C080E080FD19C0CE010E94AF
:10460000D60681110CC00E94F728882381F08A8188
:10461000882369F082E0DF91CF910C949629CE0136
:104620000E94D222CE01DF91CF910C94AF06DF9190
:10463000CF91089580E090E00E94041E80E090E019
:104640000E941A1E0E941E290E942E290C944C2999
:1046500080913A0190913B010E94A52A0C941A2363
:104660000E940E290C942823E92FE295EF704E2F1B
:1046700050E0FA013297EE30F105B0F4E658FF4F02
:104680000C94EC33803F91F018F4883E68F40EC02F
:10469000843F51F40BC0883E48F0813F29F406C0A6
:1046A00093FB882780F9089580E0089581E00895BC
:1046B0000E94BF280E9434230895CF93DF9300D037
:1046C00000D01F92CDB7DEB70F900F900F900F90D4
:1046D0000F90DF91CF910895CF93DF9300D000D05A
:1046E00000D0CDB7DEB726960FB6F894DEBF0FBE6A
:1046F000CDBFDF91CF9108951F93CF93DF93C091EA
:104700008D0216E080918E02C81799F0D0E01C9FB0
:10471000F0011D9FF00D1124E157FD4F40815181A3
:1047200062817381848195810E946C232196C77078
:10473000E9CFDF91CF911F9108954091BF02509131
:10474000C0026091C1027091C2028091C302909137
:10475000C4020C946C230F931F93CF93DF9380912B
:10476000C40282958F7009F05DC08091C1028823D8
:1047700009F458C080918D0210918E026091BF02A1
:104780007091C002C091C202D091C30291E06F3F0C
:1047900009F090E0292F06E0811709F443C0209723
:1047A00021F07F3F21F030E003C031E001C0322F23
:1047B00090E030FD34C0089FF001099FF00D1124F6
:1047C000DF01A157BD4F11963C911197371327C0B8
:1047D0003C91361324C012963C91129731111FC0A0
:1047E00013964D915C9114974C1B5D0B483C510501
:1047F000B0F48091C4028F7080618093C402EC5643
:10480000FD4F80818F70806180838FEB92E00E94EA
:10481000EA22DF91CF911F910F910C947C23019696
:104820008770BACFDF91CF911F910F9108959F921A
:10483000AF92BF92CF92DF92EF92FF920F931F93AE
:10484000CF93DF93CDB7DEB761970FB6F894DEBF95
:104850000FBECDBF8C0185E0F801DE011D960190F1
:104860000D928A95E1F7F80140815181E2809091A3
:10487000BF026091C0022091C2023091C302211593
:10488000310531F06F3F31F481E09F3F19F403C0EF
:1048900081E001C080E0F82FF1709F2E80FD46C1BD
:1048A000F801A380B4808FEBC82E82E0D82EF09060
:1048B000C102F501E21BF30BFF2009F4DFC0809178
:1048C000C402E83CF10508F09BC0282F207F09F0C6
:1048D00052C0561313C0491311C0FE2CE1100EC074
:1048E0008F7080618093C4020E949D23C6010E9444
:1048F000EA228091C402F801858358C1AB2831F0C7
:104900005F3F31F481E04F3F19F403C081E001C003
:1049100080E080FD03C081E08E2502C080E090E051
:10492000F82FF170FF2E80FF1CC080918D02209126
:104930008E0236E0821709F417C190E0389FF0012B
:10494000399FF00D1124E157FD4F6181561306C0C8
:104950006081461303C06281E61203C0019687702E
:10496000E9CFFE2CEE2009F421C18091C4028160C0
:104970008093C4025AC0561306C0491304C0E11004
:1049800002C0F8019FC04D875E878D859E850E947D
:104990005823882379F1EE2069F12091C402822FF7
:1049A00082958F7090E0029774F08091BF02909191
:1049B000C00298878F831986BB86AA862C87CE0172
:1049C00007960E94EA2286E0F801AFEBB2E0019080
:1049D0000D928A95E1F70E94AB230E949D230DC0A2
:1049E000561729F14D875E878D859E850E94582335
:1049F00081112CC0C8010E94EA22FF24F394D6C082
:104A0000282F207F69F77A2DB98AA88A6E2D898987
:104A10000E945D238FEB92E00E94EA2286E0F6017D
:104A200011928A95E9F70E949D23F12CBFC049138A
:104A3000D9CFE110D7CFF8018583C8010E94EA22BF
:104A400086E0F60111928A95E9F7B0C0EE2091F266
:104A50002091C402822F82958F7090E002970CF40F
:104A6000B2CF8091BF029091C0029A8389831B824A
:104A7000BD82AC822E83CE010196A3CFE83CF10526
:104A800008F047C0FE2CEE2009F4B4CF561330C016
:104A900049132EC02091C40220FD21C0822F82958F
:104AA0008F70482F50E041155105C9F0F80125835A
:104AB0004F30510541F08F5F982F9295907F822F54
:104AC0008F70892B8583C8010E94EA2286E0F80155
:104AD000AFEBB2E001900D928A95E1F742C086E01B
:104AE000F801AFEBB2E001900D928A95E1F75EC05C
:104AF0004D875E878D859E850E945823811163CFE7
:104B00008091C40281608093C402C8010E94EA229D
:104B10004DC07A2DB98AA88A6E2D89890E945D239D
:104B200086E0F60111928A95E9F71BC0EE2009F4A0
:104B300061CF4D875E878D859E850E945823F82E14
:104B4000882309F457CF86E0F801AFEBB2E001907B
:104B50000D928A95E1F78FEB92E00E948B1F0E94E5
:104B6000AB230E949D2322C04D875E878D859E8545
:104B70000E94BF28292F22952F70223028F49F7081
:104B800039F0811105C00BC0243028F49F7049F41E
:104B9000805E883020F0C8010E94EA229F2CF92C08
:104BA00005C0F8019581907F99F7F9CF8F2D619617
:104BB0000FB6F894DEBF0FBECDBFDF91CF911F912E
:104BC0000F91FF90EF90DF90CF90BF90AF909F90AC
:104BD00008951F93CF93DF93CDB7DEB72C970FB611
:104BE000F894DEBF0FBECDBF4F83588769877A87A1
:104BF0008B879C87CE0107960E9417248823D1F0CB
:104C00009F8188852A853B85232B31F08F3F31F4A6
:104C100081E09F3F19F403C081E001C080E080FD86
:104C200047C04F81588569857A858B859C850E9410
:104C30006C233EC086E0FE013796DE01119601909E
:104C40000D928A95E1F7FF81E8856A857B8561157C
:104C5000710531F0EF3F31F481E0FF3F19F403C0FB
:104C600081E001C080E080FD23C020918E0230E011
:104C7000C90101968770992740918D0250E08417F1
:104C80009507F1F1F983EA837D836C8396E0929F27
:104C9000D001939FB00D1124A157BD4FFE01319655
:104CA00001900D929A95E1F780938E020E947C23E9
:104CB00016E080918D0290918E02891771F1189FF4
:104CC000C001112481579D4F0E941724882329F188
:104CD000E0918D021E9FF0011124E157FD4F4081AC
:104CE000518162817381848195810E946C238091BE
:104CF0008D0290E001968770992780938D02D9CF1D
:104D00000E94302310928E0210928D02EFEBF2E09F
:104D100086E0DF011D928A95E9F72C960FB6F8948C
:104D2000DEBF0FBECDBFDF91CF911F910895EF92EF
:104D3000FF920F931F93CF93DF938C01892B09F47C
:104D40006CC0F12CEE24E394E8012196F8018491E3
:104D5000843740F4843008F051C0813081F08230D3
:104D600019F15BC0853709F444C0A8F19CE7980F9E
:104D7000903708F052C08F770E94332041C00E5FF9
:104D80001F4FFE01849190E2980F983050F4877085
:104D9000FE2D01C0FF0F8A95EAF78F2F0E9421296F
:104DA00014C00E94911F2DC00E5F1F4FFE01849101
:104DB00090E2980F983060F48770FE2D01C0FF0FCD
:104DC0008A95EAF78F2F0E9427290E944C2919C043
:104DD0000E94332016C00E5F1F4FFE01C491CC23EA
:104DE00081F08FE99FE00197F1F700C00000C1500A
:104DF000F6CF0E5F1F4FFE01F49003C00E94911F7B
:104E00008E018F2D882309F49FCFEFE9FFE03197C2
:104E1000F1F700C000008150F5CFDF91CF911F91D5
:104E20000F91FF90EF900895089508950C94152721
:104E30000C9416270E9418276093F1027093F202D7
:104E40008093F3029093F4020C941A230C941A2783
:104E50000F931F930091F1021091F2022091F3023F
:104E60003091F402602B712B822B932B1F910F91A9
:104E70000C941A270F931F930091F1021091F202E4
:104E80002091F3023091F402602371238223932353
:104E90001F910F910C941A270F931F930091F10209
:104EA0001091F2022091F3023091F40260277127F1
:104EB000822793271F910F910C941A270C94152782
:104EC0000E945E276093ED027093EE028093EF02E2
:104ED0009093F0020C941A2360E070E0CB010C94E4
:104EE00060270F931F9341E050E060E070E08A017B
:104EF0009B0104C0000F111F221F331F8A95D2F798
:104F0000C901B8011F910F910C9460270F931F9353
:104F100041E050E060E070E004C0440F551F661FA0
:104F2000771F8A95D2F78091ED029091EE02A091C1
:104F3000EF02B091F0028A019B01082B192B2A2B5A
:104F40003B2BC901B8011F910F910C9460270F935F
:104F50001F9341E050E060E070E004C0440F551F33
:104F6000661F771F8A95D2F740955095609570958A
:104F70008091ED029091EE02A091EF02B091F002CB
:104F80008A019B01082319232A233B23C901B80165
:104F90001F910F910C9460270F931F9341E050E0F5
:104FA00060E070E004C0440F551F661F771F8A95AC
:104FB000D2F78091ED029091EE02A091EF02B091B4
:104FC000F0028A019B01082719272A273B27C901DC
:104FD000B8011F910F910C9460270F931F930091BC
:104FE000ED021091EE022091EF023091F002602B61
:104FF000712B822B932B1F910F910C9460270F9391
:105000001F930091ED021091EE022091EF0230917A
:10501000F00260237123822393231F910F910C943C
:1050200060270F931F930091ED021091EE022091E3
:10503000EF023091F00260277127822793271F919A
:105040000F910C9460270895292F220F920F990F2A
:10505000890FE82FE695E695E695877051E001C047
:10506000550F8A95EAF785E0E89FF0011124EB538C
:10507000FD4F20E030E070E04081CB01022E02C005
:10508000969587950A94E2F7817081958427852308
:10509000842781932F5F3F4F2530310569F70895AD
:1050A000292F220F920F990F890F682F6695669509
:1050B0006695982F977085E0689FB001112440E0B5
:1050C00050E080E0FB01E40FF51FEB53FD4F208122
:1050D00030E0092E02C0369527950A94E2F7217038
:1050E0003327042E01C0220F0A94EAF7822B4F5F68
:1050F0005F4F4530510531F70895BF92CF92DF924F
:10510000EF92FF920F931F93CF93DF938C01C09088
:10511000ED02D090EE02E090EF02F090F00280916C
:10512000F1029091F202A091F302B091F402C82A28
:10513000D92AEA2AFB2ACFE1D0E0D701C6010C2EFA
:1051400004C0B695A795979587950A94D2F780FDE8
:1051500004C0219790F7B12C07C0BC2EB8018C2F4A
:105160000E947D070197A9F38B2DDF91CF911F91AD
:105170000F91FF90EF90DF90CF90BF900895CF9365
:10518000DF93EC010E947D28BE010E947D07DF9124
:10519000CF9108951F93CF93DF93EB0190918C02F1
:1051A000992321F0CB010E94BF2813C0882349F026
:1051B000CB010E947D28182F682FCE010E94242841
:1051C00004C0CB010E945028182FBE01812F0E94DD
:1051D0007D07DF91CF911F9108958091F50285950C
:1051E0008595859508958091F50287700895909131
:1051F000F502977081E009F480E008958091010341
:10520000089590910103892B80930103089580955F
:105210009091010389238093010308951092010363
:10522000089590910003892B809300030895809541
:105230009091000389238093000308951092000346
:1052400008959091FF02892B8093FF020895809525
:105250009091FF0289238093FF0208951092FF022C
:1052600008958091F602089508950C9434290C94C1
:1052700035299091F602981721F08093F6020C944C
:10528000372908958091F602882329F01092F602BA
:1052900080E00C9437290895E0913A01F0913B01A8
:1052A000809101038083E0913A01F0913B0190816C
:1052B00080910003892B8083E0913A01F0913B01BA
:1052C00090818091FF02892B80838091F602882350
:1052D00081F0E0913A01F0913B019081892B80832C
:1052E00080913A0190913B010E945F2A81110E94B6
:1052F000422980913A0190913B010C94BB1D0C9482
:10530000342998E0899F90011124262B2093F502DF
:105310000E9486278091F5028595859585950C9448
:105320007F291092F50280E00C947F292091F502EC
:10533000809582238093F502982F977079F430E05E
:10534000482F082E000C550B2417350739F085958A
:10535000859585950E94A7270C949129089580E052
:1053600090E00E949A3421E08B3E9E4F09F020E0AD
:10537000822F089582E090E00C948C3483E090E0DA
:105380000C948C34CF9384E090E00E948C34C82F2E
:1053900081E290E00E948C342C2F30E0A901582B40
:1053A000CA01CF910895CF93C92F682F84E090E070
:1053B0000E94A0346C2F81E290E0CF910C94A03435
:1053C00086E090E00C948C34682F86E090E00C949A
:1053D000A034AB01BC018FE090E00C94B234AB017F
:1053E000BC0183E190E00C94B23460E070E0CB014A
:1053F0000C94EF296BEE7EEF80E090E00E94BE34CB
:1054000060E082E090E00E94A03460E083E090E001
:105410000E94A0341092F1021092F2021092F30254
:105420001092F40260E084E090E00E94A03460E01A
:1054300081E290E00E94A03460E085E090E00E946C
:10544000A03460E086E090E00E94A0346FEF87E037
:1054500090E00E94A03440E050E0BA0188E090E083
:105460000E94B23460E08DE090E00E94A03440E001
:1054700050E0BA0188E190E00E94B23460E087E138
:1054800090E00E94A03440E050E0BA018CE190E04E
:105490000E94B23460E080E290E00E94A03440E0DC
:1054A00050E0BA0188E190E00E94B2340C945406B6
:1054B0000C94FA29682F8EE090E00C94A034FC0143
:1054C000329697E080E0915029F021912223D9F380
:1054D0008F5FF9CF0895662349F0FC013296089654
:1054E0002191621729F0E817F907D1F780E00895B4
:1054F00081E008959C01FC0132969FEF80E041918C
:10550000461789F09F3F19F4411101C0982F8F5F12
:105510008630A9F79F3F39F0F901E90FF11D97FD9A
:10552000FA956283089508959C012A5F3F4FFC011C
:105530004281461301C01282019682179307B9F780
:1055400008950C947A2A0C94942A029626E0FC0181
:1055500011922A95E9F7089508950C94AC2A0C94B9
:10556000AC2ACF930E94AF2A0E94CE0A0E94AD2A95
:10557000C0E08C2F0E946609811104C0CF5FCA3041
:10558000C1F701C081E0CF9108950C94AC2A0C942E
:10559000C52A80915F03843061F10E94C72A80E0B0
:1055A0000E947B1780E00E9455071092030320E4BD
:1055B00088E190E00FB6F894A895809360000FBE44
:1055C0002093600083B7817F846083BF83B781604D
:1055D00083BF7894889583B78E7F83BF0FB6F89486
:1055E000A8958091600088618093600010926000AF
:1055F0000FBE08950C94AC2A0E9430230E9400161E
:105600000E94AF1D0E9455070C94FA2A1F920F9218
:105610000FB60F9211248F939F93AF93BF938091F6
:105620000303811113C08091510390915203A09103
:105630005303B09154034196A11DB11D80935103B2
:1056400090935203A0935303B0935403BF91AF912F
:105650009F918F910F900FBE0F901F90189582E031
:1056600084BD93E095BD9AEF97BD80936E00089539
:105670002FB7F8948091510390915203A091530356
:10568000B09154032FBF08952FB7F8946091510340
:105690007091520380915303909154032FBF08954A
:1056A0009C014FB7F8948091510390915203A091BF
:1056B0005303B09154034FBF821B930B089578940A
:1056C0001F920F920FB60F9211248F939F93AF9357
:1056D000BF938091510390915203A0915303B091D5
:1056E00054030196A11DB11D809351039093520361
:1056F000A0935303B0935403BF91AF919F918F91A7
:105700000F900FBE0F901F90189510925503109296
:10571000560310925703109258030895CF92DF92C8
:10572000EF92FF926B017C010E94970B81110EC0DA
:105730000E94442BC61AD70AE80AF90AC0925503F8
:10574000D0925603E0925703F0925803FF90EF90E7
:10575000DF90CF9008950F931F930E94970B88239B
:1057600021F01F910F910C94442B0E94442B009127
:105770005503109156032091570330915803600F41
:10578000711F821F931F1F910F9108950E94970B05
:1057900081110C94382B0E94AB2BCB01089581E032
:1057A0008093E00080E28093D8001092C9008FE1DE
:1057B0009EE40197F1F700C0000087E090EBDC0168
:1057C0008093680390936903A0936A03B0936B037B
:1057D0009CE088E10FB6F894A895809360000FBE16
:1057E00090936000FFCF9093FB018093FA0108959E
:1057F0000E94AF29811102C00E94582A0E94BA2932
:10580000809302030E94C22990935A038093590304
:105810000E94BE29682F70E080E090E00E94262759
:105820006091ED027091EE028091EF029091F00292
:105830000C945E2780910F0308950895CF93DF9312
:1058400000D01F92CDB7DEB790915F03943019F569
:1058500089837B836A8382E08093E9008FEF909154
:10586000E800815095FD06C095ED9A95F1F700008E
:105870008111F5CF8091E80085FF0DC040E050E038
:1058800063E070E0CE0101960E94DB2E8091E8007B
:105890008E778093E8000F900F900F90DF91CF915B
:1058A0000895BC0184E00C941E2CBC0183E00C9490
:1058B0001E2CCF93DF9321E02093E9002FEF30914E
:1058C000E800215035FD06C035ED3A95F1F70000AE
:1058D0002111F5CF2091E80025FF14C0EC0140E034
:1058E00050E068E070E00E94DB2E8091E8008E7747
:1058F0008093E80088E0FE01A7E0B3E001900D92FC
:105900008A95E1F7DF91CF91089588E799E00E94A9
:10591000B20580915E03811109C00E946C300E9423
:10592000C9308091E20084608093E200089584E7AA
:1059300099E00E94B20510925E03089580E799E015
:105940000C94B2058CE699E00C94B20588E699E0D7
:105950000C94B205209105032F5F822F62E30E9411
:105960008833992319F020930503089510920503B5
:1059700080910603882371F180915F03843041F5A3
:105980008091E9008F702091EC00922F917020FDA2
:1059900090E8892B93E09093E9009091EB0090FFC1
:1059A00014C09091EE0097FF10C09091E80095FF11
:1059B00003C01092F100F9CF9091E80090FF05C06C
:1059C0009091E8009E779093E8008F708093E900B3
:1059D00010920603089542E061EC81E00E94E52FF9
:1059E00042E261EC82E00E94E52F42E261EC83E05A
:1059F0000C94E52F80916103833009F460C030F48A
:105A0000813071F0823009F499C008958A3009F428
:105A100085C08B3009F46BC0893009F0A7C020C065
:105A200080916003813A09F0A1C08091E800877FEE
:105A30008093E8008091640390916503892B21F4A1
:105A400068E087E093E003C060E080E090E070E011
:105A50000E94262F8091E8008B778093E8000895BC
:105A600080916003813209F081C08091640390913C
:105A70006503029708F07AC08091E800877F8093E1
:105A8000E8008091E80082FD05C080915F038111EC
:105A9000F8CF6CC02091F3008091F20090E0922B3F
:105AA000029729F48091F1008B7F813021F480915D
:105AB000F10080930F038091E8008B7753C08091B1
:105AC0006003813A09F052C08091640390916503AC
:105AD000892B09F04BC08091E800877F8093E80014
